:020000040800F2
:100000000000022059030008610300086303000890
:10001000650300086703000869030008000000008A
:100020000000000000000000000000006B0300085A
:100030006D030008000000006F0300087103000852
:1000400073030008730300087303000873030008B8
:1000500073030008730300087303000873030008A8
:100060007303000873030008730300087303000898
:100070007303000873030008730300087303000888
:100080007303000873030008730300083537000882
:1000900015370008730300082537000873030008AC
:1000A00073030008B16200087303000873030008BB
:1000B0007303000873030008730300087303000848
:1000C0007303000873030008730300087303000838
:1000D0007303000873030008730300087303000828
:1000E0007303000873030008730300087303000818
:1000F0007303000873030008730300087303000808
:1001000073030008730300087303000873030008F7
:1001100073030008730300087303000873030008E7
:1001200073030008730300087303000873030008D7
:10013000730300080000000000000000653700089D
:10014000453700087303000855370008730300089B
:1001500073030008730300087303000873030008A7
:100160007303000873030008730300087303000897
:100170007303000873030008730300080000000005
:1001800000000000730300080000000000000000F1
:100190007303000800000000000000007303000863
:1001A00000000000000000000000000073030008D1
:1001B0007303000873030008730300087303000847
:1001C0007303000800F002F800F0B8F80AA090E805
:1001D000000C82448344AAF10107DA4501D100F002
:1001E000ADF8AFF2090EBAE80F0013F0010F18BF17
:1001F000FB1A43F001031847B0180100D0180100A2
:100200000A444FF0000C10F8013B13F0070408BF3C
:1002100010F8014B1D1108BF10F8015B641E05D0DA
:1002200010F8016B641E01F8016BF9D113F0080F8F
:100230001EBF10F8014BAD1C0C1B09D16D1E58BF21
:1002400001F801CBFAD505E014F8016B01F8016B58
:100250006D1EF9D59142D6D37047000000230024CB
:1002600000250026103A28BF78C1FBD8520728BFC6
:1002700030C148BF0B6070476E2900F0918570292E
:1002800000F0E181662910F0A980652910F0A680B0
:10029000672910F0A380612910F0A28003681B0A6F
:1002A00028BF41F08001692900F05281642900F0E3
:1002B0004F81752900F04C816F2901F09E807829CB
:1002C00000F0AD81E92901F03980E42901F03680A0
:1002D000F52901F03380EF2901F09B80F82900F027
:1002E000AC810368DB0928BF41F08001632900F07D
:1002F000A887732900F0AD87E32901F06587F3290A
:1003000001F06A87002070471FB50FF0A6FF9DE837
:10031000030000F099FC01F023FD040000200021FF
:100320000EF0D4FF401C6060002000210EF0B8FFEA
:10033000E06001F047FC00F047FC1FBD0BF042FEFF
:10034000114603B40BF084FE03BCFFF7DDFF03F09E
:10035000CCF90CF0D5FD0000064880470648004760
:10036000FEE7FEE7FEE7FEE7FEE7FEE7FEE7FEE765
:10037000FEE7FEE74D620008C5010008004870472F
:100380000016002070B5064600F042FC056806F134
:100390000B0020F00704B4429CBF002070BD2B4628
:1003A0006A68BAB11068A04210D304F1080188420B
:1003B0003CBF5068586007D35168101941601168FC
:1003C000091B016058601460101D70BD134652680F
:1003D000002AE7D12146284600F022FC0028DED181
:1003E00070BD70B50446051F00F012FC0068002CBB
:1003F00014BF446870BD002C18BFAC423CBF2046FF
:100400006468F8D301680A18AA4218BF456003D18E
:100410002A6805461144016028684119A1421CBFA1
:100420006C6070BD6168696021680844286070BDB7
:10043000B2F120030AD5C2F1200320FA02F001FA3A
:1004400003F321FA02F140EA0300704721FA03F0B6
:100450004FF00001704700007CB51D4616460C00A9
:10046000009001D02044401E074B7B442A46694639
:100470000190304600F0BBFE05461CB100206946E5
:1004800000F0C8FE28467CBDB10D00000B460146B9
:10049000184600F0E3BE00000FB4044910B503AAEB
:1004A000029800F0DBFE10BC5DF814FB581600202B
:1004B00070B5044685690068C10601D5302600E0A4
:1004C0002026C00707D070BDD4E9012130469047EF
:1004D000206A401C20626D1EF6D570BD70B50446C2
:1004E00085690078C00707D170BDD4E901212020BB
:1004F0009047206A401C20626D1EF6D570BD70B515
:100500000C460546012A05D02878800600D5EA6900
:10051000002302E0012305E05B1C934202D2E05C71
:100520000028F9D1A869E618C01AA861286A1844F9
:1005300028622846FFF7BCFF04E0D5E9012114F842
:10054000010B9047B442F8D32846FFF7C7FF70BDB0
:100550002DE9F0410646002410687529314616A59C
:1005600010D000F0B2FB002802DA404213A507E0E9
:1005700031688A0701D512A502E0490704D511A503
:10058000012401E000F0AAFB00210A2206F1240761
:1005900009E0B0FBF2FCB0FBF2F302FB1C003030D0
:1005A00078541846491C0028F3D123462A46304681
:1005B000BDE8F04100F09BBB000000002D000000F2
:1005C0002B00000020000000F0B40D460188090552
:1005D00002D5214C7C4402E01F4C7C440E340021A7
:1005E00000F1240608E002F00F071209E75D42EA75
:1005F00003721B097754491C52EA0307F3D10278AE
:100600000023120704D5702D06D009B1022311343E
:100610002246F0BC00F06BBB01231034F8E770B544
:1006200004460D462146106800F058FB0246294654
:100630002046BDE870400023C6E7D21D22F0070324
:10064000D3E90023C0E70368126843F02003036086
:100650000823C3610023B7E7240F01002DE9F05FF1
:10066000894604464FF0000ADFF874B1FB44C0F835
:1006700020A02046E1688847002874D0252806D0AD
:10068000D4E901219047206A401C2062F1E700264E
:100690005F462046E16888472028054607DB312D64
:1006A00005D2781910F8200C08B10643F1E7B0071D
:1006B00001D526F00406C4F81CA00027C4F818A031
:1006C0002A2D09D028460BF0A8FC38B304EB870884
:1006D000303DC8F8185019E059F8041B204604EBC7
:1006E00087029161E1688847012F054618D1E069CA
:1006F000002820DA26F020061DE0D8F8180000EBCC
:10070000800005EB40003038C8F818002046E1684A
:10071000884705460BF081FC0028EED1012F0AD056
:100720002E2D08D12046E16888477F1C0546022F00
:1007300046F02006C4DBA069002803DA404246F0F8
:100740000106A061F00701D026F010066C2D0BD039
:10075000682D09D04C2D39D06A2D35D0742D35D067
:100760007A2D33D016E038E0E1682F4620468847DE
:10077000B842054609D16C2F26D04FF48060E1685D
:10078000064320468847054604E06C2F1AD04FF4F4
:10079000807006430DB3A5F14100192802D8203519
:1007A00046F400664A462946204626604E46FFF734
:1007B00063FD80B101280BD0F61D26F0070000F183
:1007C000080956E74020E4E78020D8E70020D6E774
:1007D00006F104094DE7284652E7206ABDE8F09F7C
:1007E000B40E010070B50646FFF7C8FD0468054663
:1007F00030460A22002100F089FE2C6070BD000006
:1008000070B50446C068810713D0800601D5A56A7B
:1008100004E0A169606808442169451A204601F096
:100820008DF9002206462946204601F0B3F83046ED
:1008300070BD002070BD70B510B1BDE87040DFE73D
:100840000025074C6E1E07E02046FFF7D9FF00B1D8
:100850003546206D20F00104002CF5D1284670BDEE
:10086000041600202DE9F0410C46074616461046B6
:1008700000F078F82078611C61280AD0722802D034
:1008800077283CD102E00125002405E0022504245C
:1008900002E0082448F2020511F8010B2B2806D0CB
:1008A000622809D011F8010C74280AD00BE045F039
:1008B000030544F00204EFE745F0040544F00104A9
:1008C000EAE744F01004384621460BF03BFC411C9B
:1008D00015D00021316171604FF40071F560F16154
:1008E0007061200704D530460222002101F052F841
:1008F000306D40F0010030653046BDE8F0810020E9
:10090000FBE72DE9F0410D460646104C206DC1076E
:1009100004D0410804D020F00104F7E722460EE09D
:100920005420FFF72FFD07000ED0206D47F0010186
:10093000084354212065384600F0DEF83A4629463F
:100940003046BDE8F0418DE70020D6E704160020D0
:1009500011B14FF4807201E04FF480624FF40073E4
:1009600001F094B82DE9F04704464FF000094FF02C
:10097000FF37C568D4E90486A80707D0204601F0F0
:10098000DDF830460BF06AFB002802DA3846BDE895
:10099000F087280502D54046FFF723FD4C2120466D
:1009A00000F0AAF8206D20F0010020654846EEE72F
:1009B00010B5431C02E010F8011B71B18107FAD198
:1009C0004FF0013202C88C1A8C4314EAC211F9D0DC
:1009D000C01A0A0603D0C01E10BDC01A10BD0A04FA
:1009E00001D0801E10BD0902FCD0401E10BD40EA9F
:1009F000010370B59B072ED14FF00136042A2AD38C
:100A000008C810C99D1B9D43121F15EAC61517D0B3
:100A1000D8B2E1B2401A50EA056110D198B2A1B241
:100A2000401A50EA05410AD123F07F4024F07F416B
:100A3000401A50EA052102D1180EA0EB146070BDD7
:100A4000A342DBD018BA21BA884201D9012070BD77
:100A50004FF0FF3070BD0AB9002070BD10F8013BA7
:100A600011F8014B63B1A3420AD1521E08D010F80D
:100A7000013B11F8014B1BB1A34201D1521EEDD134
:100A8000181B70BD10B5203AC0F00B80B1E81850AB
:100A9000203AA0E81850B1E81850A0E81850BFF468
:100AA000F5AF5FEA027C24BFB1E81850A0E8185007
:100AB00044BF18C918C0BDE810405FEA827C24BF5B
:100AC00051F8043B40F8043B08BF7047D20728BFE9
:100AD00031F8023B48BF11F8012B28BF20F8023B38
:100AE00048BF00F8012B704702F0FF0343EA0322DE
:100AF00042EA024201F00BB94FF0000200B5134682
:100B000094469646203922BFA0E80C50A0E80C502D
:100B1000B1F12001BFF4F7AF090728BFA0E80C50DE
:100B200048BF0CC05DF804EB890028BF40F8042BD7
:100B300008BF704748BF20F8022B11F0804F18BF44
:100B400000F8012B704700004FF0013C50F8042BD7
:100B500051F8043B9A4221D1A2EB0C03934313EAD0
:100B6000CC1317D150F8042B51F8043B9A4215D1FD
:100B7000A2EB0C03934313EACC130BD150F8042BD4
:100B800051F8043B9A4209D1A2EB0C03934313EAB8
:100B9000CC13DBD04FF00000704700BFD01A01BA71
:100BA000B1FA81F101F0180122FA01F0CB40C1F154
:100BB0002001DBB2C0B2C01A2CFA01F3D11A914362
:100BC00011EAC311E6D1704770B5064C7C44064D5E
:100BD0007D4403E0206820448047241DAC42F9D1C5
:100BE00070BD00002C100100301001002DE9F04113
:100BF00017460E46054633B107FB0354E41B204657
:100C0000B047A542FAD1A5F10800BDE8F081000087
:100C100000487047001700207047704770477047C2
:100C200038B504460A460020694601F08CFE0028CB
:100C300008BF38BD02460099204601F095F8012012
:100C400038BD012001F054BEF8B501F071FE054633
:100C500000200C46102000BF0646A819A0420DD95E
:100C600032466946002001F06EFE070008BF01F021
:100C70003FFE0098A04218BF0546C419FFF7C8FF01
:100C800005600746F01D20F007004619284600F0D1
:100C90000AF8B44208BFF8BDA21B31463868BDE867
:100CA000F84001F061B800210160C0E9011070470F
:100CB0001020704710B5FFF761FB006810BD10B53C
:100CC0000446FFF75BFB046010BD09684A0501D5C7
:100CD00040B27047C905FCD500B2704709684A05A3
:100CE00001D5C0B27047C905FCD580B270472DE967
:100CF000F0470D4699469246044600F124080168E3
:100D0000880604D5E06921F01001216000E001208F
:100D1000A84201DD471B00E00027A1697A1902EB18
:100D20000900081AA0612078C00602D42046FFF707
:100D3000BFFB002608E0D4E901211AF8060090471D
:100D4000206A401C761C20624E45F4DB2078C006E9
:100D50000AD52046FFF7ACFB06E0D4E9012130209C
:100D60009047206A401C2062381EA7F10107F4DC7E
:100D700007E0D4E9012118F805009047206A401CDB
:100D80002062281EA5F10105F3DC2046FFF7A6FB33
:100D90002078000602D50220BDE8F0870120FBE79D
:100DA00011680268006A530501D508700AE0D3058E
:100DB00001D5088006E0130603D5C217C1E9000279
:100DC00000E008600120704770472DE9FF4F0C4696
:100DD0001E464FF0FF378BB0D2E90001DDF860808E
:100DE0000A908A46C1F30A5505B93D4600210846D6
:100DF0004FF00000BAF1000F00F4400005DA00EBFC
:100E000080004FF4400101EA50004FEA9059B9F1D7
:100E1000010F00DDB9460A9850EA4A000ED044F6A8
:100E20001050A5F2FF3545432F14B8F1000F1ED026
:100E30007542291E1EDDC9F100021CE0B8F1010F48
:100E40004FF0000001D0302103E0F24305E02154CF
:100E5000401CB042FBDB30460022002121540B999C
:100E6000C1F80880C1E900200FB0BDE8F08FBD1BBC
:100E70006D1CDEE74A4600DA694206A801F060FC14
:100E800006AB93E8070003AB83E8070050460A99D6
:100E900002F01DF88DE80700A0F500501F38009003
:100EA0000398002D09DD42F21F014A46084403A9B8
:100EB0000390684602F0A7FA08E0A0F500504A4601
:100EC0001F3803A90390684602F0C5FA8DE80700B1
:100ED0000004000C03D04FF0FF30410800E0104642
:100EE000B8F1000F03D00022009215461EE0751ED7
:100EF00005D400F053FF303262556D1EF9D5B3466C
:100F00000122084302D000227F1C04E02078302810
:100F100001D100227F1E002A099786D01DE0112DE5
:100F200007DA00F03BFF303262556D1C50EA0102D7
:100F3000F5D1084302D00098C8B10EE00021681E28
:100F400005E0235C625C63542254401E491C8142CC
:100F5000F7DBAB46A81B401E0990002004F80B00ED
:100F60000B98099AC0F80880C0E9002B7CE711268D
:100F70004FF0000859E72DE9F04F88460446D21D8E
:100F800022F0070191B0D1E90001CDE90A010AF090
:100F90009BF802460B98C00F01D02D2007E0206877
:100FA000810701D52B2002E0202101EAC000032A9D
:100FB000099001D0072A05DB03464146204601F08F
:100FC000B9F80BE12078800601D5E06900E0062041
:100FD000B8F1650F814606D0B8F1660F18D0B8F1A8
:100FE000670F70D131E00020B9F1110F009001DBE3
:100FF000112301E009F101030AAA01A90CA8FFF7D6
:10100000E4FEDDE90C70002609F10105834647E0A6
:1010100001204B4600904FF000470AAA01A90CA8F6
:10102000FFF7D3FEDDE90DB00C995D46002610B93F
:1010300009F101000D18B9EB050003D4C0F1FF362A
:1010400009F10105A5EB09002BE0B9F1010F01DA67
:101050004FF001090020B9F1110F0090484601DD61
:10106000112300E003460AAA01A90CA8FFF7ADFE70
:10107000DDE90C704D4600268346207800070AD42F
:10108000AB4500DA5D4601A8012D04DD411911F8D8
:10109000011C302907D04F4502DA17F1040F04DA9A
:1010A000012082460FE06D1EEEE7002F02DCED1BF3
:1010B0003E4403E0781CA84200DD7D1CB81B00F113
:1010C000010A4FF000472078000703D4AA4501DB4E
:1010D0004FF0FF3A0021B7F1004F0DF143088DF8B2
:1010E000431024D002202B23002F01DA7F422D232E
:1010F0000A21021EA0F1010000DC5FB197FBF1FCA8
:1011000097FBF1F201FB1C7C17460CF1300C08F840
:1011100001CDEEE7A8F1010003702188090501D592
:10112000452100E06521A0F1010800F8011C0998A3
:101130000FA9A1EB0807FF1D00B10120411901EB28
:10114000EA70A1693844081A401EA0612078C006E0
:1011500002D42046FFF7ACF9099828B1D4E901215F
:101160009047206A401C20622078C00622D5204685
:10117000FFF79EF91EE0002E04DBB34502DD01A857
:10118000805D00E03020D4E901219047206A401CB6
:101190002062761CAAF101005FEA000A0AD100F081
:1011A000DFFDC0680168405CD4E901219047206AF6
:1011B000401C2062281EA5F10105DCDC07E0D4E913
:1011C000012118F8010B9047206A401C2062381E4C
:1011D000A7F10107F3DC2046FFF780F9032011B0E7
:1011E00043E6000001694A1C02610878704700B5B7
:1011F0008FB0CDE901310021059105497944CDE950
:10120000031011466846FFF729FA0FB000BD000031
:10121000E5FFFFFF0A6802F8010B0A607047D1E999
:1012200000239A4202D2531C0B601070704710B515
:10123000436913B1AFF3008001E0FFF760F90120CB
:1012400010BD127800F124010A7000224A700122B8
:10125000EDE711684FF0FF32E9E70000074B70B58A
:101260000D467B44FFF7C3FF0446284600F086F98D
:1012700010B14FF0FF3070BD204670BDD3BC0000F0
:101280002DE9FF5F15468A460446DFF8AC80F84436
:101290000027D8E900103E46CDE9001010E03AF8EA
:1012A00016106A4602A801F0F7FA411C07D021780F
:1012B000890603D5E269391891420DD80744761C96
:1012C0002078800602D5E069B84205DDAE42E6DB53
:1012D0003AF816000028E2D1A069C01BA0612046A0
:1012E000FFF7E6F8D8E90010CDE90010002017E07C
:1012F0003AF818106A4602A801F0CEFAB0F1FF3FA2
:1013000081460BD000250DF1080B05E0D4E9012141
:101310001BF8050090476D1C4D45F7D308F10100FF
:10132000B0428046E4DB206A384420622046FFF762
:10133000D5F8BDE8FF9F0000E60301002DE9F0416C
:101340008046D21D22F007020025D2E90002F529CD
:1013500015A614D0011E72F1000106DA0023D0EBAD
:10136000030063EB020211A608E0D8F800108B0717
:1013700001D50FA602E0490701D50EA601251146A9
:10138000002408F1240704E000F008FD30323A554B
:10139000641C50EA0102F7D12B46324621464046F2
:1013A000BDE8F041FFF7A3BC000000002D000000E5
:1013B0002B0000002000000030B4002100F12404C4
:1013C00008E002F00705D208303542EA4372DB0834
:1013D0006554491C52EA0305F3D10468002310A2A6
:1013E000250707D5A40600D421B1C46901230DA2A5
:1013F000641EC46130BCFFF77ABC10B504462146B8
:101400001068FFF76BFC02462046BDE81040002341
:10141000D2E7D21D22F00701D1E90023CCE700007A
:101420000000000030000000426842B1016811F87D
:10143000013B23B1521EC0E900121846704701213A
:10144000C160881E704742685AB1C368016843B9D9
:1014500083688B4205D0491E521CC0E9001200204F
:1014600070474FF0FF3070470FB4002300B589B0CC
:101470000CA900910B99CB60214B7B440693214B27
:101480007B44079304236FF00042CDE901321E4AEA
:101490007A446B460892024600200FF003F809B028
:1014A0005DF814FB70B506464FF0FF3015460C464C
:1014B000324686B00091CDE90101694600200490D2
:1014C00004A8FFF7D1FF02460498211825B108B1FE
:1014D000084600E020462860049800280DD0002A25
:1014E00002DD0098884208D03246081B6946009405
:1014F000CDE9010404A8FFF7B7FF06B070BD0000F6
:10150000ABFFFFFFC3FFFFFF930900002DE9F0478A
:1015100091460F4680460446002614F8015B2DB123
:1015200000F016FC0068405DC007F6D12B2D02D0FC
:101530002D2D18D0641E4A463946204601F0B0F8D9
:1015400027B13968A14201D1C7F800804FF00204E9
:1015500071050BD54042002803DDFEF70FFF046044
:10156000A007BDE8F08746F48066E4E70028F8DAD3
:10157000FEF704FF04606FF00040F2E7007B00F02C
:101580008000704770B50D4601461446D368506917
:101590002A460AF093FE002807DA411C07D0E168CA
:1015A00020F0004041F48041E160281A70BD2046DF
:1015B00000F090FA4FF0FF3070BDC1680022026069
:1015C00021F4805141F0400111F4C06FC16001D09D
:1015D0008260704702694168891AC269891A81600C
:1015E00070472DE9F0470446C06840F48000E06091
:1015F000010312D520F40020E060810606D4E26ADF
:1016000061688A4200D80A46511A216040F40010ED
:10161000E06094F82500BDE8F08720F40010E06059
:10162000800602D5204600F0ACFAE06842F2810163
:101630004FF0FF390140012903D0204600F04AFA5B
:10164000B6E02168002600290ADAC94340F4805038
:101650002160C4E902606068411C61600078DAE7DB
:1016600044F2400108420CD020F4A04040F0400079
:101670002660E06021696068401AE169401AA06054
:1016800096E0216991B9C00310D4E069FEF77AFEB3
:101690002061B0B1E06840F4006010F4407FE06089
:1016A00002D140F48070E06020696060E068D4F8A6
:1016B00014A0C1061AD5C0030ED5204600F03EFA8C
:1016C00014E004F1240020610120E061E06820F4CE
:1016D000407040F48060E6E721696068401AA169C3
:1016E000014450460AF022FE0028A6DBE068C00351
:1016F0002AD56168E06A884200D808462169451AFF
:10170000E069471B1BD02046D4F8188000F016FA79
:1017100008EB05015046C4F818800AF007FE0028BF
:101720008BDBE06840F40030E060000202D5A06985
:101730002844A061E1692069C91B45180DE02046D5
:1017400000F0FCF9E769F5E725696168D4E9060767
:10175000491BE56208446560A061E06820F0100064
:1017600010F4C06FE06002D0204601F079F8E06824
:1017700040F48050C4E90260000205D52069E062AF
:1017800060606FF0010046E7224639462846FFF7C1
:10179000F9FE411C0CD02918E16258B1401E2060AE
:1017A000681C6060E06840F40030E060287832E750
:1017B000484630E765602046FFF7FFFEF8E72DE971
:1017C000F04705460C46C86820F4201040F480001D
:1017D000C860800602D5084600F0D3F9E06841F2FF
:1017E00082014FF0FF390140022903D0204600F06A
:1017F00071F9B5E000F42041B1F5004F0FD1C003FD
:1018000006D56168E06A884200D80846606006E054
:101810002069E062606060690AF048FCA061A0682D
:101820000022EEB200280DDAE1688B050AD4C0432D
:10183000A06041F490302260E0606068411C61600B
:101840000670A5E0E0689046226040F40050E06039
:10185000206968BB60690AF053FC012704F1240584
:10186000A0B1A08910F4407F08D0E069FEF78AFD9E
:10187000206118B1E06840F4006016E0E76125617E
:10188000E06820F4407040F480600EE0E069FEF70C
:1018900079FD00282061F1D0E06840F4006010F488
:1018A000407FE06002D140F48070E06020696060B9
:1018B000E06825696FF0010AC1051FD56168E06A1B
:1018C000884200D80846411B04D02246284600F032
:1018D0000BF9F0BBE068010203D5E562C4E90158E9
:1018E00054E0691CE1626160E16940F48030491EA6
:1018F000C4E9021030462E70BDE8F087010202D51F
:1019000000F480320AE06068411C61600670E068A3
:101910000A2E40F48030E06006D00022E16A606860
:10192000814203D90B4602E00122F7E70346A7896B
:101930005B1B7F0503D4E7699F4200DDE2B1814272
:1019400000D80146E5620F1AC4E90158002B09DDF1
:1019500000E005E022461946284600F0C5F808B127
:101960004846C9E747B1A069E5626560C01BA06150
:10197000E06840F01000E060E068000208D56168AF
:10198000A069E562491B08446560A0615046B3E761
:101990003046B1E72DE9F041044616460D46476949
:1019A000007B80072ED038460AF0AAFB50BB3EB31E
:1019B000012E02D0022E25D104E0204600F02EFF99
:1019C00005441DE038460AF071FBE168002841F04B
:1019D0001001E16005DA204600F07CF80120BDE846
:1019E000F081C9030BD56268E16A914200D81146C3
:1019F000A26911442269891A814200DD0846054422
:101A0000002D01DA0220EAE7E16A6068E2688142BB
:101A100006D29103E06203D522F4003141F01002B6
:101A2000A6690027AE4213DCE16A814201D90B4668
:101A300000E0034603EB060C2369ACEB030CAC455A
:101A400006DD814201D98C4600E084469C4505D1E3
:101A5000A760276042F02000A5620DE0AD1BE6699B
:101A6000AE1B8142A66000D90846C01A281A206021
:101A70005819606022F0200003490840E06000200F
:101A800084F84870ABE70000BFCFD7FF70B5C468DB
:101A9000A50713D0650211D4B2F5807F09D0B2F545
:101AA000007F06D0B2F5806F08D1012300F1240138
:101AB00006E05D1E6FF07F46B54201D3012070BD88
:101AC0000161C361416024F470611143C160002071
:101AD00070BD0000C16821F4001141F08001C160B7
:101AE00000218160016070472DE9F047814614466E
:101AF0000E464FF0FF383248D5685769054209D085
:101B00003846A1690AF012FC002811DB2C48C043BA
:101B10000540E5602B463246494638460AF038FC17
:101B2000A16920F00042B21A11440028A16103D03B
:101B30002046FFF7CFFF4046BDE8F08770B504466A
:101B40000569C06A6168884200D80846E16821F4E6
:101B50002011E160C90312D5A84208D02246411BDA
:101B60002846FFF7C1FF10B14FF0FF3070BD0020D5
:101B7000E562C4E90150E06820F48030E0600020B4
:101B800070BD10B50446C06820F02000E060A16A76
:101B9000A06988420DD02046FFF7D0FFE06820F40E
:101BA000405040F01000E060A06AA0612069E0624F
:101BB000606044F24001E0688843E06010BD0000CE
:101BC0001000020010B542485421FEF795FF41482D
:101BD0005421FEF791FF40485421FEF78DFF3F4905
:101BE0003B483C4A3F4B08603D490A603A4919600E
:101BF000531C0365481C1065012008653B48344AA6
:101C000039A17844FEF72EFE20B9384878440A38C6
:101C100000F067FE37482F4A35A17844FEF722FED0
:101C200020B9344878440A3800F05BFE32482A4A2A
:101C30002FA17844FEF716FE20B92F4878440A38C1
:101C400000F04FFE40232248DC0000212246FFF72F
:101C50001DFF20B125487844543800F042FE1D484D
:101C6000224640230021FFF711FF20B1214878448C
:101C7000543800F036FE1848224610230021FFF7A2
:101C800005FF002806D01C487844BDE810405638AF
:101C900000F027BE10BD104870B5006D20F00104A3
:101CA0000B48FEF75FFE0B48FEF75CFE0A48FEF7A6
:101CB00059FE09E0206D20F001052046FEF752FE96
:101CC0002046FEF78EFB2C46002CF3D170BD0000A1
:101CD0000416002058160020AC1600200403002033
:101CE000080300200C0300207200000092F10000A5
:101CF0007700000081F1000071F1000010B500F0E4
:101D0000FFFDBDE8104000F0E7BD4FF000020429E0
:101D1000C0F0128010F0030C3EF4F0AECCF1040CD5
:101D2000BCF1020F18BF00F8012BA8BF20F8022B4E
:101D3000A1EB0C01FEF7E2BE5FEAC17C24BF00F814
:101D4000012B00F8012B48BF00F8012B7047000061
:101D500010B500F005F8001D10BD00BF71D50000E2
:101D60000048704704170020034640688C4600284E
:101D700018BF88423CBF03464068F8D3186818442F
:101D8000884207D00CF1030020F00700001D411A23
:101D9000521A0146081D0A60FEF723BB30B5B0F1A8
:101DA0000A024FEA900E71F100034EEA817EB0EB19
:101DB0000E0061EB91014FEA101E4EEA017E10EB1E
:101DC0000E0041EB11114FEA102E4EEA016E10EB9E
:101DD0000E0041EB11214FEA104E4EEA014E10EB7E
:101DE0000E0041EB1141401841F100014FEAD000D3
:101DF00040EA41704FEAD10110EB80054FEA8104BF
:101E000044EA907444EB01046D1944EB0404521B42
:101E1000A3414FF0000348BF0A3200D530BD401C3B
:101E200041F1000130BD10B50446FFF791FF006895
:101E3000005D00F0010010BD2DE9F04F04460D4695
:101E4000D21D22F0070089B0D0E9009748463946F4
:101E500009F03AF90246F80F01D02D2307E0206877
:101E6000810701D52B2302E0202101EAC0038DF870
:101E700020300BB1012000E00020032A824601D06F
:101E8000072A04DB2946204600F054F93FE1207878
:101E9000800601D40D2500E0E569C7F30A560D2D33
:101EA00049DA00214FEA175B08464FF00000002F87
:101EB00000F4400007DA00EB80004FF4400100EB33
:101EC000D07001EA60008115012901DD4FF0FF317A
:101ED00000224FEA850CBCF1180F06D31346ACF173
:101EE00018004FF08052C24003E04FF4801323FAF1
:101EF0000CF30CF10C0CBCF1200F04D3ACF1200C52
:101F000009FA0CF001E007FA0CF000294FF0004844
:101F100001DD18B90FE00ED140450CD319EB0209D1
:101F20005F4121B9404502D19F4329EA0209BBEB39
:101F3000175F00D0761C2088000502D57B487844C6
:101F400002E07A487844193808AA302302F80A30A7
:101F5000037C0AF10101002E0AF1020A53546A4679
:101F600002DC4FF0300101E04FF031014FF0010889
:101F70008DF8001002D0A6F2FF3603E059EA4701BF
:101F800000D06B4E002D02DC2178090704D54FF0FC
:101F900002082E218DF80110C44600210BE0C7F382
:101FA00003433F01C35C491C6D1E02F8083005293C
:101FB00008F1010801DA002DF1DC00210CE000EB52
:101FC0001973491C1B786D1E082902F808304FEA66
:101FD000091908F1010801DA002DF0DC21688B06EF
:101FE00002D516E0A8F10108E04505DD02EB080383
:101FF00013F8013C302BF5D0B8F1000F09DD02EBEE
:10200000080313F8013C2E2B03D1090701D4A8F1D2
:102010000108002D05DD3E2102F808106D1E08F1B3
:102020000108407C002E02F8080008F1010804DADB
:102030002D20764202F8080002E02B2002F808006A
:102040000A214FF47A70864208F101080BDB96FBF7
:10205000F0F3303302F8083096FBF0F308F1010892
:1020600000FB136601E0642E0CDB642096FBF0F3AA
:10207000303302F8083096FBF0F308F1010800FB5A
:10208000136601E00A2E06DB96FBF1F0303002F811
:10209000080008F1010896FBF1F001FB10603030F8
:1020A00002F80800A16908F1010808EB050202EB3B
:1020B0000A00081AA0612078C00602D42046FEF764
:1020C000F7F9216A08AE01EB0A00206204E0D4E9C6
:1020D000012116F8010B9047BAF1010AF7D22078D6
:1020E000C00602D52046FEF7E3F96E4609E016F871
:1020F000010B3E280FD0D4E901219047206A401CF3
:102100002062B8F10108F2D22046FEF7E7F909B0E3
:102110000320BDE8F08F206A2844206203E0D4E960
:102120000121302090476D1EEBD3F8E771F70000D6
:1021300002FCFFFF2DE9F0411F460446032601681B
:10214000072A01F4006004DB08B116A505E016A516
:1021500003E008B115A500E015A521F010002060EE
:10216000A069C01EA0610FB1401EA0612046FEF70D
:102170009FF94FB1D4E9012138469047206A401CAD
:102180002062C01C206206E0206AFAE7D4E901213F
:1021900015F8010B9047761EF8D22046FEF79EF9FF
:1021A000BDE8F0814E414E006E616E00494E460022
:1021B000696E660010B5436913B1AFF3008001E0AA
:1021C000FFF75EF8012010BD128800F1240182841F
:1021D0000022C2840122EDE711684FF0FF32E9E7E7
:1021E0003A2800D2303820F02002412A01D3A2F14F
:1021F0003700884201D34FF0FF3070472DE9FF4F81
:10220000064689B00878FF2806D0491C2D2805D03D
:1022100000244FF0000908E000200CE00124F8E75A
:1022200009EB8903491C00EB43090878FF28F7D123
:1022300014B1C9F100008146107800252C46AA4649
:1022400029462D2801D02B2804D1521C2D2813D02B
:10225000002082468B461078FF280FD04FF0000CEC
:102260000A21521CA5FB017804FB018105FB0C111E
:10227000C5194BEB0104EEE70120EAE7002108460F
:102280004FF00000BAF1000F02D000EB80004008D0
:10229000C0F38158B8F1010F01DD4FF0FF380C9801
:1022A00009EB000755EA040009D04FF0020917F5C1
:1022B000FA7F0BDA4FEACA70C6E900B012E04FEAC3
:1022C000CA70C6E900B00DB0BDE8F08FB7F5FA7F6F
:1022D0000DDDF0487844D0E90010C6E9001040EA6E
:1022E000CA707060FEF74AF8C0F80090EBE7391E3C
:1022F00002DAC8F1000200E0424600DA794206A89C
:1023000000F01EFA06AB93E8070003AB83E8070072
:1023100044F23E005BEA04010090584604D144F2C6
:102320001E012C465D460091210C0904014306D193
:102330000099240444EA15442D041039009104F056
:102340007F41014306D10099240244EA15642D021D
:102350000839009104F07041014306D1009924012D
:1023600044EA15742D01091F009104F04041014316
:1023700006D10099A40044EA9574AD00891E00912D
:1023800004F00041084304D100986D196441401ED7
:10239000009042466846002FCDE9014503A902DDC1
:1023A00001F06DF801E001F042F8BAF1000F0446C7
:1023B0000D4601D084F0004440F2FF7724F0004045
:1023C000284303D0C4F30A50B84212D1FDF7D6FF18
:1023D000C0F80090C4F30A50B8420AD1AE4878441D
:1023E000D0E90010C6E9001004F000410843706015
:1023F00069E7C6E9005466E72DE9FF4F1F464FF035
:10240000000A4FF0FF38454691B0D7E90146CDF8B4
:102410003CA0FFF7A5FCC0680168405C1090B9695A
:1024200012986D1C8847396A814688470028F6D182
:10243000B9F1FF3F0AD0002E24F4D06411DDB9F1C8
:102440002B0F08D0B9F12D0F0BD102E0404615B08B
:102450003AE744F48064B96912986D1C8847761E87
:102460008146600504A901D52D2000E02B20002E17
:1024700001F1010B0DF130088DF810003FDDB9F1CD
:10248000690F08D0B9F1490F05D0B9F16E0F02D02C
:10249000B9F14E0F1CD13B4601A8009580E85002CF
:1024A000DDE912126FF002000EF000F8C11CCED16F
:1024B0000EE0B96912986D1C884781461398761E04
:1024C00044F4007405600F98401C002E0F9016DD38
:1024D000B9F1300FEDD0B9F1780F02D0B9F1580F42
:1024E0000DD10F9801280AD13B46CDE90054DDE912
:1024F0001212001F02960DF0D7FFC11CA7D1109930
:1025000089453ED144F0800406E01399681CAAF185
:10251000010A44F400740860B9696D1C1298761EB3
:10252000884730288146F0D02BE01099894505D1A5
:10253000200603D4761E44F0800418E0484609F0D3
:102540006CFD08B3761E0DF123018B4544F4007435
:1025500008D2A9F130000BF8010B200607D5AAF12B
:10256000010003E0200602D40AF101008246A00522
:1025700002D51399681C0860B96912986D1C8847C8
:102580008146002ED1DC53E0002E51DDB9F1650FFC
:1025900002D0B9F1450F4BD1A00549D5B9696D1CE1
:1025A0001298761E24F440748847002E81460CDD74
:1025B0002B2804D0B9F12D0F07D144F48074B969E8
:1025C00012986D1C8847761E8146E00501D52D21A5
:1025D00000E02B2108F8011BCDF8008021E0761ED9
:1025E0000DF13901884544F400740CD2A9F1300092
:1025F00010F0FF0088F8000002D10099884509D941
:1026000008F1010806E0E00501D5244801E042F2A6
:102610000F708246B96912986D1C884781461398DD
:102620000560002E04DD484609F0F7FC0028D6D1ED
:10263000F96912988847FF2053468BF8000088F804
:10264000000000200A900B9004AA0CA90AA8FFF72A
:10265000D5FDA00502D46FF00100F8E614F0240FB8
:102660000AD0E00714D13868DDE90A12031D3B6087
:102670000068C0E900120BE00AA9684609F00CFBEB
:10268000E00705D13868009A011D396000680260D2
:102690002846DCE6F0F70000E6F60000F1D8FFFF80
:1026A0002DE9F05F824615468B4600270AF10104AA
:1026B000B9460078302801D09DB113E014F8010B21
:1026C0000127782803D0582801D045B10AE00DB180
:1026D000102D07D1002714F8010B102502E0082562
:1026E00000E00A250026B0460EE005FB080005FBC9
:1026F00006F101271FFA80F801EB1046B6F5803F7E
:1027000000D3B94614F8010B2946FFF769FD0028EC
:10271000EBDABBF1000F05D00FB1641E00E05446A8
:10272000CBF80040B9F1000F06D0FDF727FE0221DB
:102730000160C81EBDE8F09F48EA0640FAE70000C5
:102740002DE9F047814616468AB0334878440DC8D3
:102750008DE80D0030487844801C03AC0DC884E837
:102760000D0041F69B300844372190FBF1F290FBBD
:10277000F1F5A5F1800501FB12041B3C02D5644272
:10278000012000E00020DFF890A080460027FA44F6
:10279000AAF1BE0A0DE0E00709D03246684607EB11
:1027A00047010AEB810100F056FE8DE80700641036
:1027B0007F1C002CEFD1184F7F44AC3F18E0E80796
:1027C00014D007EB04100DF1180A90E80E008AE807
:1027D0000E00C068F04201D198190890324606A94F
:1027E00003A800F038FE03AB83E807006D10641CFB
:1027F000002DE4D132466946B8F1000F03A802D09B
:1028000000F001FE01E000F026FEC9E90001C9F870
:1028100008200AB0BDE8F087F4EF000010B50146CB
:10282000C268900703D0900607D5886A0AE0FDF7D2
:10283000A5FD01210160881E10BD8B694868184400
:102840000B69C01A91F848301BB191F84910401A31
:1028500010BD1103FCD50028FADD401E10BD00009C
:1028600070B5054640F202260A4C0FE094F850007D
:10287000C00708D0AC4206D0E06836EA000002D1BA
:102880002046FDF7BDFF206D20F00104002CEDD1A6
:1028900070BD00000416002070B516460C460546B3
:1028A000FFF756FA036893F80101012806D0FF2CC0
:1028B0000FD8185D68B101202C7070BDD3F80701E6
:1028C0003246214603F2071303442846BDE8704010
:1028D00018474FF0FF3070BD002801D000F050B80D
:1028E000704710B500F06CF8BDE81040FFF7F4BF7A
:1028F00010B500F07FF8BDE81040FFF7EDBF000015
:1029000010B5002102A000F041F8012010BD000028
:102910005349475056464E3A2050757265207669A5
:10292000727475616C20666E2063616C6C65640006
:10293000124B694600F580528A421A6001D811464E
:1029400070471960704730B50C4D6B46A3F5805346
:102950002C6822449A420FD89B1A02F5805003EB50
:10296000D37302EB6303984200D91846C01D20F0D0
:1029700007020C60101B2A6030BD0000100300200D
:1029800001491820ABBEFEE72600020070B50546DF
:102990000C460A2000E06D1C00F054F835B1287890
:1029A0000028F8D102E0641C00F04CF814B1207843
:1029B0000028F8D1BDE870400A2000F043B80000BC
:1029C00010B5014602A0FFF7E1FF012010BD000095
:1029D00053494752545245443A20526564697265DE
:1029E00063743A2063616E2774206F70656E3A20BD
:1029F0000000000010B5012805D0002103A0FFF75A
:102A0000C5FF012010BD09A1F8E700005349475256
:102A1000544D454D3A204F7574206F6620686561AE
:102A200070206D656D6F7279000000003A20486576
:102A30006170206D656D6F727920636F7272757051
:102A40007465640008B569468DF800000320ABBECC
:102A500008BD70472DE9FF4F1F464FF03C0987B076
:102A60004FF00042DDE9141001F10108DDF858A033
:102A700002EA405003900020059083460546044634
:102A80000490B969461E08988847AAF1010A029085
:102A9000BAF1000F3BDD02982E2815D01021FFF768
:102AA0009FFB00282EDB4FF0010B0599014317D047
:102AB000B9F1000F0BDB4A46C11700F0F5F90543E9
:102AC0000C43A9F1040905E0012004900BE008B1D2
:102AD00045F0010501200590049820B9361D02E05B
:102AE000049800B1361FB969089808F101088847B1
:102AF000BBF1000FAAF1010A0290C9D00999C1F8EF
:102B00000080C5E70298702808D0502806D0F969DF
:102B100008988847BBF1000F14D04FE000200290C6
:102B20000120BBF1000F049009D0B969089808F1A1
:102B300001088847AAF10109B9F1000F07DCF9691A
:102B4000089888476FF001000BB0BDE8F08F2B2884
:102B500004D02D280CD14FF0FF300490B9690898AB
:102B600008F101088847A9F10109B9F1000FE6DD74
:102B7000411CE4D00A21FFF733FB0028DFDB029978
:102B800008F1010801EB810100EB41000290B969F5
:102B9000089888470A21FFF723FB099AA9F1010940
:102BA000B9F1000FC2F8008001DD0028E7DAF96909
:102BB000089888470499029800FB016655EA0400CA
:102BC00004D004F04041090002D006E0039898E0E8
:102BD000A40044EA9574AD00B61E04F0004108005C
:102BE00002D16D196441761E159810F0240F03D0A0
:102BF0004FF00B095C4803E04FF028096FF07D00AF
:102C00008246564507DAAAEB06018944B9F1410F1D
:102C100001DD4FF0410901200021A9F1010200F07E
:102C200043F9024628400B462140084301D00121C8
:102C300000E00021501E029143F1FF312840214065
:102C4000084301D0012000E000200299834651EAA8
:102C50000B014FD0002108464FF00000039900F40B
:102C6000400039B100EB80004FF4400100EBD07020
:102C700001EA60008015012802DD4FF0FF3000E01E
:102C800013D0401C36D0029860B3BBF1000F0CD1BA
:102C90004A460120002100F007F92840214008435E
:102CA00001D0012000E00020E0B101204A460021CF
:102CB00000F0FAF8034640190A4661412D1A8C418A
:102CC00011D3B9F1400F09DD159810F0240F02D08F
:102CD000AAF1340603E0AAF1170600E0761C0025ED
:102CE0004FF0004406E05B1E42F1FF3220EA03058C
:102CF00021EA0204CAF10100B04206DA1B49039836
:102D000008430190002000900EE0039AC4F3D32101
:102D1000E80A0A43164940EA44500A433146CDE9DD
:102D20000002684609F044F9159810F0240F0BD002
:102D30001598C00715D13868DDE90012031D3B6006
:102D40000068C0E900120CE002A8694608F0A4FF80
:102D50001598C00705D13868029A011D39600068CE
:102D600002604046F0E6000002FCFFFF0000F07F3A
:102D70000000F03F2DE9FF4F92461D4685B04FF011
:102D80000041DDE9124BDDE914727F1E01EA4B5070
:102D9000414940F0FF4940EA0108002122F02000AB
:102DA0004928049102D04E2828D04CE03BA00126AF
:102DB00007C88DE80700A9690698641C88477F1E2C
:102DC000014606D41DF8060018B121F02001814209
:102DD0000BD0E96906988847032E34D0082E32D0EC
:102DE0006FF0010009B0BDE8F08F761C032E01D012
:102DF000082EE0D1601CCAF80000DCE7A96906983B
:102E0000641C88477F1E2AD420F02000412826D148
:102E1000A9690698641C88477F1E20D420F02000F2
:102E20004E281CD1A9690698641C88477F1E48F467
:102E3000002849F48009CAF8004001D4282806D0A7
:102E4000E969069888475FEACB7012D022E0A96949
:102E50000698641C88477F1E01D4002803DAE969BC
:102E600006988847BCE72928F1D1641CCAF80040BD
:102E7000E9E71BF0240F07D028680499031D2B6095
:102E80000068C0E9001805E02868021D2A60006893
:102E9000C0F800902046A5E70000F07F494E464963
:102EA0004E49545900000000B2F120030AD5C2F186
:102EB000200301FA02F120FA03F300FA02F041EADA
:102EC0000301704700FA03F14FF0000070475FEA1A
:102ED000400C08BF91F0000F4FEA8C234FEAC1224B
:102EE00043EA51514FEA1C5018BF00F5F0404FEA39
:102EF000300018BF41F000415FEA6C5C00F02980AF
:102F0000BCF1FF3F08BF40F080407047130C06BF84
:102F100012044FF0100C4FF0000C130E04BF1202FD
:102F20000CF1080C130F04BF12010CF1040C930FE9
:102F300004BF92000CF1020CD30F04BF52000CF13D
:102F4000010C11464FF00002A0F11F00A0EB0C0095
:102F5000704711F0004F08BF704731F000413FF457
:102F6000D5AF0B0C06BF09044FF0100C4FF0000C4E
:102F70000B0E04BF09020CF1080C0B0F04BF090172
:102F80000CF1040C8B0F04BF89000CF1020CCB0F69
:102F900004BF49000CF1010CCCF12003A0EB0C00A4
:102FA00022FA03F302FA0CF241EA030100F10100F4
:102FB000704720F07F4C80EA030023F07F47ACEBA2
:102FC000070303F57C5300F0004003F1FF032DE9F4
:102FD00080494FEA154B09B44FEA144325EA0B4EDA
:102FE00024EA03480FF2042606EB132749083E782B
:102FF0005FEA320203FB0667C7F5000707FB06F628
:103000004FEA54374FEAD64606F1020607FB066C34
:10301000CCF1005C4FEA1C472CEA074C07FB06F496
:103020000CFB06F504EB15464FEA961634BF00205C
:103030004FF000404FEAD13706FB07FC4FEA1C4C2B
:103040000CFB0BF7D21B03FB0CF761EB07010CFB2E
:103050000EF7B0EB074072EB17420CFB08F734BFDA
:10306000A2EB0742B2EB074261EB17414FEA0C4477
:103070004FEA910706FB07FC4FEA1C4C0CFB0BF7D1
:10308000B0EBC74072EB573203FB0CF734BFA2EB37
:10309000C742B2EBC74261EB57310CFB0EF7B0EB06
:1030A000C70072EB57720CFB08F734BFA2EBC702E4
:1030B000B2EBC70261EB5771039F4FEA816141EAAE
:1030C000921104EBCC044FEAD1374FEA826206FB3F
:1030D00007FC42EA90124FEA80604FEA1C4C0CFB5E
:1030E0000BF7D21B03FB0CF761EB07010CFB0EF790
:1030F000B0EB074072EB17420CFB08F734BFA2EBB2
:103100000742B2EB074261EB17414FEA8C554FEA99
:10311000910704EB9C2406FB07FC4FEA1C4C0CFBBC
:103120000BF7B0EBC74072EB573203FB0CF734BF21
:10313000A2EBC742B2EBC74261EB57310CFB0EF773
:10314000B0EBC70072EB57720CFB08F734BFA2EB71
:10315000C702B2EBC70261EB577115EB4C254FEA82
:10316000816141EA92114FEA82624FEAD13742EA25
:10317000901206FB07FC44F100044FEA80604FEA1E
:103180001C4C0CFB0BF7D21B03FB0CF761EB07018C
:103190000CFB0EF7B0EB074072EB17420CFB08F785
:1031A00034BFA2EB0742B2EB074261EB174115EBCC
:1031B0001C154FEA813141EA92414FEA823242EADC
:1031C00090424FEA80304FEA0C7644F1000448EA1E
:1031D00003434EEA0B484FF0000EB2EB080C71EBC4
:1031E000030724BF624639464EEB0E0E4FF0000B2C
:1031F0000018524149414BEB0B0BB2EB080C71EB41
:1032000003077BF1000B24BF624639464EEB0E0EDE
:103210004FF0000B0018524149414BEB0B0BB2EB46
:10322000080C71EB03077BF1000B24BF62463946A3
:103230004EEB0E0E51EA020718BF46F0010616EBE0
:103240000E7655F1000254F1000103D5BDE8890165
:10325000BDE80088BDE88901BDE80048B6195241C3
:1032600041EB0101A3F10103704780807F7E7D7CEB
:103270007B7A7978777676757473727171706F6E08
:103280006E6D6C6C6B6A6A696868676666656464B3
:10329000636362616160605F5F5E5E5D5D5C5C5B3D
:1032A0005B5A5A59595858575756565555555454AC
:1032B000535352525251515050504F4F4F4E4E4D0A
:1032C0004D4D4C4C4C4B4B4B4A4A4A494949484856
:1032D0004847474747464646454545444444444396
:1032E00043434342424242414141000046EA0646CE
:1032F000A3F570534FEA164646EA42564FEAD222E9
:1033000042EA415210B54FEAD121A3F1010300F086
:1033100017F820F0004000F1010C00F0004701EB2D
:1033200000501146BCF5006F40EA070000D210BD06
:1033300002484FF0000140EA070010BD0000F07F96
:10334000002B26D4770021D01CB54FEA370703B4F1
:103350004FF010004FF010014FF000000FBCBDE81F
:1033600010400BF1010BBBF1010F08BF5FEA17071B
:1033700022BF12F1010211F101014FF0004143F1AE
:10338000000300F0004043EA00007047F9D35708FB
:10339000DAE746EA064613F1400F4FEA16461FDD0C
:1033A00013F1200FDFBF16430A46002120335B4292
:1033B000C8D0C3F1200746EA064602FA07F74FEAEB
:1033C000164646EA0706C3F1200722FA03F201FA7D
:1033D00007F721FA03F14FF0000342EA0702B1E7D1
:1033E00046EA020646EA06464FEA164646EA01065D
:1033F000BCBF46EA0646360C4FF000034FF0000211
:103400004FF000019EE72DE9C048934630B491E8A3
:10341000380007C831EA400C48BF34EA430C03D5F2
:10342000FFF7C7FDFFF78CFFF0BCBDE800882DE972
:10343000C048934630B491E8380007C831EA400CE0
:1034400048BF34EA430C03D5FFF7B3FDFFF74EFF47
:10345000F0BCBDE800882DE9C048934630B491E83F
:10346000380007C810F0804F08BF13F0804F03D119
:1034700000F019F8FFF764FFF0BCBDE800882DE903
:10348000C048934630B491E8380007C810F0804F28
:1034900008BF13F0804F03D100F005F8FFF726FFB7
:1034A000F0BCBDE8008820F07F4780EA030023F0ED
:1034B0007F4C07EB0C03A3F57C5300F00040A3F115
:1034C000FE0392F0000F00F0B38095F0000F00F0C3
:1034D00077802DE901494FEA11404FEA144621EA6D
:1034E000004800FB06FC24EA064708FB06F607FB3B
:1034F00008F800FB07F718EB06484CEB164C4FEAB0
:10350000124B18EB07484FEA15464CEB174022EADE
:103510000B4E0BFB06FC25EA06470EFB06F607FBE7
:103520000EFE0BFB07F71EEB064E4CEB164C4FF056
:1035300000061EEB074E4CEB174B18EB0B0840F147
:10354000000018EB0E0B58EB000840F100008F1A3A
:103550004FF000013CBFC943661B14BFB5EB040C20
:1035600000213CBFC943F61B4FEA17444EEA8E0EBA
:1035700027EA04454FEA1C4704FB07622CEA074C84
:1035800005FB07F70CFB05F604FB0CFC16EB0746E6
:1035900042EB174216EB0C4642EB1C421BEB0606B5
:1035A00058EB0202414146EA9E0601D5BDE8018979
:1035B000B619524141EB0101A3F10103BDE80189B4
:1035C0004FEA14454FEA114724EA054621EA074C21
:1035D00005FB07F406FB07F70CFB06F105FB0CFCEB
:1035E00011EB074144EB17444FEA124711EB0C4132
:1035F00044EB1C4422EA074C05FB07F206FB07F7E5
:103600000CFB06F605FB0CFC16EB074642EB1742DB
:1036100016EB0C4642EB1C456A1854F1000148BFFA
:103620007047B619524141EB0101A3F10103704704
:1036300095F0000F37D04FEA11424FEA144721EAC4
:10364000024624EA074C02FB07F106FB07F70CFBD6
:1036500006F402FB0CFC14EB074441EB17414FEA64
:10366000154714EB0C4441EB1C4125EA074C02FBC7
:1036700007F506FB07F70CFB06F602FB0CFC16EB46
:10368000074645EB174516EB0C4645EB1C42121955
:1036900051F1000148BF7047B619524141EB010199
:1036A000A3F1010370474FEA14454FEA114724EA9A
:1036B000054621EA074C05FB07F106FB07F70CFB63
:1036C00006F24FF0000605FB0CFC12EB074241EB43
:1036D000174112EB0C4251EB1C4148BF7047921846
:1036E00041EB0101A3F10103704710B50AF080F826
:1036F00009F09AFD10BD10B50446002120460BF0DC
:10370000E1FE10BD10B50446002120460BF0DAFEA4
:1037100010BD000010B50021014809F025F810BDCA
:103720000064004010B50021014809F01DF810BDEB
:103730000064004010B50021014809F015F810BDE3
:103740000064004010B50121014809F00DF810BDDA
:103750000068004010B50121014809F005F810BDCE
:103760000068004010B50121014808F0FDFF10BDC0
:103770000068004001490860704700000C3C0240AE
:1037800070B504460A460026092502B909E0012A57
:1037900001D1160205E0022A01D1160201E04FF420
:1037A000407600F09FF80546092D28D1154800689D
:1037B00020F44070134908600846006830430860F0
:1037C0000846006820F0F80008600846006844F0E9
:1037D000020108430B4908600846006840F4803045
:1037E000086000F07FF805460648006820F00200F7
:1037F000044908600846006820F0F8000860284680
:1038000070BD0000103C024009201349096801F412
:103810008031B1F5803F01D101201CE00E490968DB
:1038200001F0100109B1062015E00B49096801F407
:10383000807109B102200EE00749096801F0E0013A
:1038400009B1072007E00449096801F0020109B144
:10385000082000E0092070470C3C02400348006843
:1038600040F000400149086070470000103C0240F1
:1038700030B502460C46092500F034F80546092DFE
:1038800019D10E48006820F440700C4908600846C1
:10389000006840F4007008600846006840F00100CD
:1038A0000860146000F01EF805460448006820F027
:1038B000010002490860284630BD0000103C02406B
:1038C0000548006800F0004028B1044802490C395E
:1038D0000860034808607047103C024023016745B8
:1038E000AB89EFCD08B509200090FFF78DFF009060
:1038F00002E0FFF789FF00909DF800000128F8D052
:103900009DF8000008BD000070B504460A4600237B
:10391000157D012000FA05F33C4901F500710868A6
:1039200040F001000860086820F47C5008600868D6
:10393000556A40EA05200860C8699843C861A1F546
:103940000071D069C8B9D1F80C029843C1F80C02D3
:10395000908880B2958940EA054501F51070566956
:1039600040F83650108880B2158940EA054501F5C7
:103970001070566900EBC6004560D069012819D166
:10398000D1F80C021843C1F80C02908880B2158857
:1039900040EA054501F51070566940F836509089A7
:1039A00080B2158940EA054501F51070566900EBB3
:1039B000C6004560906928B9D1F804029843C1F85F
:1039C000040204E0D1F804021843C1F804021069AB
:1039D00020B9D1F814029843C1F8140210690128E3
:1039E00004D1D1F814021843C1F81402106A012856
:1039F00004D1D1F81C021843C1F81C02D1F800020E
:103A000020F00100C1F80002002070BD00640040F9
:103A100070B50446002600250CB9012070BD94F84D
:103A20003C0028B9002084F83D00204600F0CEF884
:103A3000022084F83C002068006820F00200216821
:103A400008602068006840F001002168086000F00C
:103A5000D3F805460EE000F0CFF8401B0A2809D93C
:103A6000032084F83C0000BF002084F83D0000BF24
:103A70000320D3E72068406800F001000028EAD066
:103A80002068406800F00100002875D0A069012876
:103A900006D12068006840F080002168086005E0D9
:103AA0002068006820F0800021680860E069012833
:103AB00006D12068006840F040002168086005E0F9
:103AC0002068006820F0400021680860206A012812
:103AD00006D12068006840F020002168086005E0F9
:103AE0002068006820F0200021680860606A0128D2
:103AF00006D12068006840F010002168086005E0E9
:103B00002068006820F0100021680860A06A012881
:103B100006D12068006840F008002168086005E0D0
:103B20002068006820F0080021680860E06A012829
:103B300006D12068006840F004002168086005E0B4
:103B40002068006820F0040021680860D4E90201C0
:103B5000084321690843616908436168491E0843B5
:103B60002168C8612068006820F0010021680860B1
:103B700000F042F805460FE01AE000F03DF8401B67
:103B80000A2809D9032084F83C0000BF002084F8EB
:103B90003D0000BF032041E72068406800F00100BD
:103BA0000028EAD12068406800F0010000B9012631
:103BB000012E06D100202064012084F83C00002062
:103BC0002CE7042084F83C00012027E770470146D9
:103BD00091F83500022803D0802048650120704705
:103BE000052081F835000868006820F001000A68A7
:103BF00010600020F3E700000148006870470000F3
:103C0000FC02002002480068401C0149086070471F
:103C1000FC02002010B50B48006840F40070094910
:103C200008600846006840F4806008600846006844
:103C300040F4807008600F2000F006F800F092F861
:103C4000002010BD003C024010B588B0044602A917
:103C500003A800F037FD00F05DFD029000BF0020DA
:103C600001903948006840F008003749086008466C
:103C7000006800F00800019000BF00BF3248203803
:103C8000006840F0080030492039086008460068A4
:103C900020F0080008602D482D4908604FF0FF31E2
:103CA0002B48C160069840B92A490298B0FBF1F050
:103CB00080B2401E2649486008E00298400025492D
:103CC000B0FBF1F080B2401E21494860002120483D
:103CD00001618160416101F087FB32201E491F4B69
:103CE0001A6800F1100342F8231000BF00BF00283B
:103CF00009DB00F01F02012191404209920002F10C
:103D0000E022C2F8001100BF0021114801F088FB39
:103D100004210F4801F084FB0D480068406A1049F7
:103D200008600846006800F57A70094909688863E8
:103D300007480068C06840F0040005490968C86089
:103D4000002008B010BD000040380240000C0040C8
:103D5000C415002040420F005DF0000808ED00E0AF
:103D6000C00200207047000038B5002400BF0020CA
:103D700000902348006840F08050214908600846C0
:103D8000006800F08050009000BF00BF01200104D7
:103D900091FAA1F1B1FA81F11A4A42F82100FFF734
:103DA0002BFF044607E0FFF727FF001BB0F57A7FE3
:103DB00001D9032038BD1448406800F48030B0F5C4
:103DC000803FF0D10120410491FAA1F1B1FA81F1D3
:103DD0000C4A42F82100FFF70FFF044607E0FFF707
:103DE0000BFF001BB0F57A7F01D90320E2E70648FC
:103DF000406800F40030B0F5003FF0D10020D9E772
:103E00004038024000000E42007000402DE9FE4F95
:103E10000446002500260027A846A946AA46AB4628
:103E2000002002900190207800F0010058B1FE4877
:103E3000006820F0C060A16B0843FB490860A06BDC
:103E400008B901200290207800F0020002280BD16E
:103E5000F548006820F0C050E16B0843F249086063
:103E6000E06B08B901200290207800F004000428DB
:103E700011D1ED48006820F44010216B0843EA4955
:103E80000860206BB0F5801F01D101200290206BEB
:103E900008B901200190207800F00800082811D10D
:103EA000E148006820F44000616B0843DE49086087
:103EB000606BB0F5800F01D101200290606B08B9F2
:103EC00001200190207800F0200020286FD100BF51
:103ED00000200090D4484C38006840F08050D2490F
:103EE0004C3908600846006800F08050009000BF20
:103EF00000BFCE48006840F48070CC490860FFF7EE
:103F00007BFE054607E0FFF777FE401B022802D93B
:103F10000320BDE8FE8FC548006800F480700028CB
:103F2000F1D0C1481C38006800F4407656B3B4F8AC
:103F3000400000F44070B04224D0BB481C380068F8
:103F400020F440760120BA49086000200860B64895
:103F50001C380660006800F0010098B1FFF74CFEC5
:103F6000054608E0FFF748FE401B41F288318842D1
:103F700001D90320CDE7AC481C380068C0F34000ED
:103F80000028EFD000BFB4F8400000F44070B0F556
:103F9000407F0DD1A4488438006820F4F810A54A69
:103FA000216C11400843A0498439086008E013E0FF
:103FB0009D488438006820F4F8109B4984390860D3
:103FC00099481C380068B4F84010C1F30B0108434D
:103FD00095491C39086000BF207800F010001028B7
:103FE00003D194F8580094490860207800F08000CC
:103FF000802809D18C480830006820F44000E16C2A
:104000000843894908310860207800F040004028C2
:1040100009D185480830006820F08060A16C084311
:10402000814908310860208800F48070B0F5807FF5
:104030000FD17D480830006820F00060616D0843B2
:10404000794908310860606DB0F1006F01D101203D
:104050000190208800F40070B0F5007F09D172480B
:104060000830006820F08050616C08436E490831C8
:104070000860208800F48060B0F5806F0FD16A4836
:104080000830006820F00050216D0843664908316F
:104090000860206DB0F1005F01D10120029002980C
:1040A000012803D02068B0F5006F7DD1002063495E
:1040B0008866FFF7A1FD054606E0FFF79DFD401B62
:1040C000022801D9032024E757488C380068C0F340
:1040D000C0600028F1D1207800F0010008B1A06B89
:1040E00030B1207800F00200022848D1E06BE8BB34
:1040F0004D480838006800F440304FF4403191FAE0
:10410000A1F1B1FA81F1C840401C47004648083887
:10411000006800F070604FF0706191FAA1F1B1FA9F
:1041200081F120FA01F847F6C07292FAA2F2B2FACF
:1041300082F2D4E90101914008430121C1EB57010A
:104140004FF4403292FAA2F2B2FA82F2914008435E
:104150004FF0706191FAA1F1B1FA81F108FA01F121
:1041600008434FF0E04292FAA2F200E007E0B2FA10
:1041700082F26169914008432B4908390860207830
:1041800000F00400042803D1206BB0F5801F08D094
:10419000207800F00800082862D1606BB0F5800F2D
:1041A0005ED12148083800E0EDE0006800F44030BE
:1041B0004FF4403191FAA1F1B1FA81F1C840401CAD
:1041C000470019480838006800F0E0404FF0E0412F
:1041D00091FAA1F1B1FA81F120FA01F947F6C07222
:1041E00092FAA2F2B2FA82F2D4E9010191400843B4
:1041F0000121C1EB57014FF4403292FAA2F2B2FA18
:1042000082F2914008434FF0706292FAA2F2B2FA41
:1042100082F22169914008434FF0E04191FAA1F107
:10422000B1FA81F10CE000008C38024000700040CF
:10423000400E4742FFFCFF0FE0114742000047429B
:1042400009FA01F10843A9490860A8480830006844
:1042500020F01F00A16A491E0843A44908310860E4
:10426000208800F48060B0F5806F47D1206DB0F1F8
:10427000005F43D19D48006800F440304FF4403166
:1042800091FAA1F1B1FA81F1C840401C4FEA40080F
:104290009648006800F0E0404FF0E04191FAA1F14B
:1042A000B1FA81F120FA01F947F6C07292FAA2F24E
:1042B000B2FA82F2D4E90101914008430122E16897
:1042C000C2EB51014FF4403292FAA2F2B2FA82F2FA
:1042D000914008434FF0706191FAA1F1B1FA81F178
:1042E00008FA01F108434FF0E04191FAA1F1B1FA67
:1042F00081F109FA01F108437C490860208800F443
:104300000060B0F5006F29D147F6C07292FAA2F2B0
:10431000B2FA82F2D4E90101914008430122E16836
:10432000C2EB51014FF4403292FAA2F2B2FA82F299
:10433000914008434FF0706292FAA2F2B2FA82F210
:104340002169914008434FF0E04292FAA2F2B2FA9A
:1043500082F2616991400843644908600120644920
:104360008866FFF749FC054606E0FFF745FC401B61
:10437000022801D90320CCE55C4884380068C0F3EA
:10438000C0600028F1D0019801287DD10020584953
:104390000867FFF731FC054606E0FFF72DFC401BE0
:1043A000022801D90320B4E5504884380068C0F3DE
:1043B00040700028F1D1207800F00400042801D1D9
:1043C000206B30B1207800F0080008283CD1606BE9
:1043D000D0BB4648001D006800F440304FF4403127
:1043E00091FAA1F1B1FA81F1C840401C4FEA400AAC
:1043F00047F6C07292FAA2F2B2FA82F2D4E906014A
:10440000914008430121C1EB5A014FF4403292FA26
:10441000A2F2B2FA82F2914008434FF0706292FA2F
:10442000A2F2B2FA82F2616A914008432F49091D53
:104430000860081D006820F4F851E06A401E41EA57
:1044400000202A4908310860208800F48070B0F507
:10445000807F34D1606DB0F1006F30D12348001DF2
:10446000006800F070604FF0706191FAA1F1B1FA4C
:1044700081F120FA01FB47F6C07292FAA2F2B2FA79
:1044800082F2D4E9060100E02EE0914008430122C7
:10449000216AC2EB51014FF4403292FAA2F2B2FA11
:1044A00082F2914008434FF0706191FAA1F1B1FAA4
:1044B00081F10BFA01F108430C49091D0860012044
:1044C0000B490867FFF798FB054606E0FFF794FBEA
:1044D000401B022801D903201BE5044884380068EA
:1044E000C0F340700028F1D0002012E5843802406B
:1044F0000000474270B504460D4600266D4800682E
:1045000000F00F00A84209D26A490D700846006801
:1045100000F00F00A84201D0012070BD207800F00B
:104520000200022807D16448006820F0F000A1686A
:10453000084361490860207800F00100002877D026
:104540006068012807D15C4808380068C0F3404023
:10455000B8B90120E1E76068022802D0606803284A
:1045600007D1554808380068C0F3406048B90120B9
:10457000D3E7514808380068C0F3400008B901206B
:10458000CBE74D48006820F00300616808434A49C2
:104590000860FFF731FB06466068012810D108E08B
:1045A000FFF72AFB801B41F28831884201D90320A2
:1045B000B3E74148006800F00C000428F0D137E070
:1045C0006068022810D108E0FFF716FB801B41F25B
:1045D0008831884201D903209FE73748006800F0FE
:1045E0000C000828F0D123E06068032810D108E00F
:1045F000FFF702FB801B41F28831884201D903207A
:104600008BE72D48006800F00C000C28F0D10FE07B
:1046100008E0FFF7F1FA801B41F28831884201D9A6
:1046200003207AE72448006800F00C000028F0D14D
:104630002048006800F00F00A84209D91D490D70FC
:104640000846006800F00F00A84201D0012064E78E
:10465000207800F00400042807D11748006820F4EF
:10466000E050E168084314490860207800F0080031
:10467000082808D11048006820F46040216940EA09
:10468000C1000D49086000F071F80B49096801F09C
:10469000F001F02292FAA2F2B2FA82F2D140074A75
:1046A000515CC840064908600F20FFF7CDFA002092
:1046B00033E70000003C024008380240E4140108DF
:1046C000000300200F2202600D4A126802F003026C
:1046D00042600B4A126802F0F0028260084A1268D7
:1046E00002F4E052C260064A126802F46042D20844
:1046F0000261044A126802F00F020A60704700006B
:1047000008380240003C0240014800687047000041
:104710000003002000B5FFF7F7FF0749096801F41F
:10472000E0514FF4E05292FAA2F2B2FA82F2D14092
:10473000024A515CC84000BD08380240F414010828
:1047400000B5FFF7E1FF0749096801F460414FF444
:10475000604292FAA2F2B2FA82F2D140024A515C6D
:10476000C84000BD08380240F4140108F0B500212B
:104770000022002300240020464D2D6805F00C0582
:1047800035B1042D06D0082D06D00C2D7ED140E089
:1047900041487DE041487BE03E4D2D1F2D6805F0EE
:1047A0003F013C4D2D1F2D6805F4800585B13B4D23
:1047B000B5FBF1F6374D2D1F2D6847F6C0773D400C
:1047C00097FAA7F7B7FA87F7FD4006FB05F20FE067
:1047D000314DB5FBF1F62F4D2D1F2D6847F6C077F3
:1047E0003D4097FAA7F7B7FA87F7FD4006FB05F2B9
:1047F000284D2D1F2D6805F440354FF4403696FAAC
:10480000A6F6B6FA86F6F5406D1C6B00B2FBF3F027
:104810003EE0204D2D1F2D6805F03F011D4D2D1F41
:104820002D6805F4800585B11C4DB5FBF1F6194DD9
:104830002D1F2D6847F6C0773D4097FAA7F7B7FAC6
:1048400087F7FD4006FB05F20FE0134DB5FBF1F6CF
:10485000104D2D1F2D6847F6C0773D4097FAA7F7FA
:10486000B7FA87F7FD4006FB05F20A4D2D1F2D68AC
:1048700005F0E0454FF0E04696FAA6F6B6FA86F661
:1048800025FA06F4B2FBF4F002E0FFE7024800BFAD
:1048900000BFF0BD083802400024F40000127A0086
:1048A00038B504460025207800F0010000286FD0BC
:1048B000FE48006800F00C0004281BD0FB4800688C
:1048C00000F00C00082807D1F848001F006800F429
:1048D0008000B0F5800F0DD0F448006800F00C00A7
:1048E0000C2813D1F148001F006800F48000B0F5D7
:1048F000800F0BD1ED4808380068C0F34040002815
:1049000059D06068002856D1012038BD00BF6068CA
:10491000B0F5803F08D1E5480838006840F48030A1
:10492000E249083908601EE06068B0F5A02F0DD19B
:10493000DE480838006840F48020DC490839086007
:104940000846006840F4803008600CE0D74808381A
:10495000006820F48030D5490839086008460068AE
:1049600020F48020086000BF606890B1FFF744F930
:10497000054606E0FFF740F9401B642801D90320F3
:10498000C3E7CA4808380068C0F340400028F1D0A7
:1049900011E0FFF731F9054606E0FFF72DF9401B5E
:1049A000642801D90320B0E7C04808380068C0F384
:1049B00040400028F1D1207800F00200022875D193
:1049C000BA48006800F00C00B8B1B848006800F0C0
:1049D0000C00082805D1B548001F006800F48000CD
:1049E00058B1B248006800F00C000C2821D1AF4843
:1049F000001F006800F48000D8B9AC48083800688F
:104A0000C0F3400020B1E068012801D001207CE71C
:104A1000A6480838006820F0F800F82292FAA2F2BE
:104A2000B2FA82F2216991400843A049083908602E
:104A30003CE0E06828B301209D490860FFF7DCF8FE
:104A4000054606E0FFF7D8F8401B022801D90320ED
:104A50005BE7964808380068C0F340000028F1D0B2
:104A600092480838006820F0F800F82292FAA2F282
:104A7000B2FA82F22169914008438C4908390860F2
:104A800014E000208A490860FFF7B6F8054606E002
:104A9000FFF7B2F8401B022801D9032035E783480D
:104AA00008380068C0F340000028F1D1207800F0F9
:104AB000080008282CD16069A8B101207D49086050
:104AC000FFF79AF8054606E0FFF796F8401B022824
:104AD00001D9032019E775486C300068C0F3400025
:104AE0000028F1D014E0002072490860FFF784F834
:104AF000054606E0FFF780F8401B022801D9032095
:104B000003E76A486C300068C0F340000028F1D128
:104B1000207800F0040004287FD100BF002000901E
:104B200062483830006840F0805060493831086091
:104B30000846006800F08050009000BF00BF5E484B
:104B4000006840F480705C490860FFF755F805463E
:104B500006E0FFF751F8401B022801D90320D4E6F4
:104B60005548006800F480700028F2D000BFA068AB
:104B7000012808D14D486830006840F001004B49D9
:104B8000683108601DE0A06805280DD147486830ED
:104B9000006840F004004549683108600846006834
:104BA00040F0010008600CE040486830006820F0E8
:104BB00001003E49683108600846006820F00400A2
:104BC000086000BFA068A0B1FFF716F8054608E02E
:104BD000FFF712F8401B41F28831884201D90320C7
:104BE00093E6324868300068C0F340000028EFD0F8
:104BF00013E0FFF701F8054608E0FEF7FDFF401B54
:104C000041F28831884201D903207EE62748683086
:104C10000068C0F340000028EFD1A069F0B323483A
:104C2000006800F00C0008287CD0A069022862D13E
:104C300000201F490866FEF7DFFF054606E0FEF785
:104C4000DBFF401B022801D903205EE61748083825
:104C50000068C0F340600028F1D1D4E9070108439F
:104C600047F6C07292FAA2F2B2FA82F2616A9140F9
:104C700008430122A16AC2EB51014FF4403292FA7B
:104C8000A2F2B2FA82F2914008434FF0706292FAB7
:104C9000A2F2B2FA82F2E16A914000E044E00843F5
:104CA0004FF0E04292FAA2F208E000000838024019
:104CB00000004742800E474200700040B2FA82F284
:104CC000216B914008431949086001201849086682
:104CD000FEF792FF054606E0FEF78EFF401B022816
:104CE00001D9032011E61148001F0068C0F340609D
:104CF0000028F1D018E000200D490866FEF77CFF7F
:104D0000054607E0FEF778FF401B022802D9032082
:104D1000FBE507E00548001F0068C0F3406000287D
:104D2000F0D101E00120F0E50020EEE5043802407A
:104D30000000474270470000F8B504462068466806
:104D40002068856805F0400048B905F0010030B1E1
:104D500006F0400018B12046216C8847F8BD05F0E8
:104D6000020030B106F0800018B12046616C88471F
:104D7000F4E705F4B070002876D006F02000002893
:104D800072D005F04000F0B194F8510003280ED025
:104D9000606D40F00400606500BF00200090206856
:104DA000C068009020688068009000BF0BE000BFE2
:104DB000002000902068C068009020688068009003
:104DC00000BF00BFCAE705F0200088B1606D40F069
:104DD0000100606500BF002000902068806800909E
:104DE0002068006820F040002168086000BF00BF14
:104DF00005F4807058B1606D40F00800606500BF38
:104E00000020009020688068009000BF00BF606DA7
:104E100020B32068406820F0E0002168486001204D
:104E200084F8510006F0020010B906F00100B8B194
:104E30002068406820F0030021684860E06C28B1D9
:104E40000A48E16C0865E06CFEF7C1FEA06C28B171
:104E50000648A16C0865A06CFEF7B9FE03E003E00C
:104E60002046FFF767FF79E700BF77E7555C00084A
:104E700010B504460CB9012010BD606A00B900BF2E
:104E8000A06AB0F5005F00D100BF94F8510028B9C6
:104E9000002084F85000204600F03AF8022084F800
:104EA00051002068006820F0400021680860D4E9C3
:104EB00001010843E1680843216908436169084327
:104EC000218B01F400710843E1690843216A08431A
:104ED000A16A0843216808600421A06901EA104022
:104EE000616A084321684860A06AB0F5005F02D19A
:104EF0002168E06A08612068C06920F400602168C8
:104F0000C86100206065012084F851000020B3E7EB
:104F100070470000F0B504460E4615460027A0680D
:104F200068B96068B0F5827F09D1042084F8510027
:104F30002B4632463146204600F052F9F0BD00BF04
:104F400094F85000012801D10220F7E7012084F8ED
:104F5000500000BF94F85100012801D0022746E01C
:104F600006B10DB9012742E0042084F85100002069
:104F70006065A663A587E5872063A086E0866064F8
:104F8000E06810B11D48206401E01D482064A0685D
:104F9000B0F5004F05D12068006820F480402168FA
:104FA0000860A06AB0F5005F0ED100BF20680068FD
:104FB0004DF6FF710840216808602068006840F4E1
:104FC00000502168086000BF2068406840F0600021
:104FD000216848602068006800F04000402805D043
:104FE0002068006840F040002168086000BF00BFF2
:104FF000002084F8500000BF38469FE7695C000835
:10500000E55C000870472DE9F84304460D46174655
:105010001E464FF00008C14600BF94F8500001281A
:1050200002D10220BDE8F883012084F8500000BFBF
:10503000FEF7E2FD804694F85100012802D04FF0BF
:105040000209C3E005B117B94FF00109BEE0032022
:1050500084F85100002060652563A786E786A06379
:10506000A087E08760642064A068B0F5004F05D198
:105070002068006840F4804021680860A06AB0F5AC
:10508000005F0ED100BF206800684DF6FF71084038
:10509000216808602068006840F4005021680860BA
:1050A00000BF2068006800F04000402805D020685C
:1050B000006840F0400021680860E068B0F5006FCB
:1050C0002AD1606810B1E08E012806D128882168B5
:1050D000C860AD1CE08E401EE08619E02068806844
:1050E00000F00200022807D128882168C860AD1CA2
:1050F000E08E401EE0860BE03EB1701C40B1FEF732
:105100007BFDA0EB0800B04202D34FF003095DE045
:10511000E08E0028E2D129E0606810B1E08E01281D
:1051200006D12878216808736D1CE08E401EE08649
:1051300019E02068806800F00200022807D1287872
:10514000216808736D1CE08E401EE0860BE03EB1C6
:10515000701C40B1FEF750FDA0EB0800B04202D336
:105160004FF0030932E0E08E0028E2D1424631469A
:10517000204600F07FFE10B14FF0030926E04246C2
:105180003146204600F04AFC20B14FF001092020B2
:1051900060651BE0A06850B900BF00200090206847
:1051A000C068009020688068009000BF00BFA06ABF
:1051B000B0F5005F05D12068006840F48050216898
:1051C0000860606D08B14FF0010900BF012084F84C
:1051D000510000BF002084F8500000BF484621E77E
:1051E000F0B5044600250026002700BF94F85000C3
:1051F000012801D10220F0BD012084F8500000BF39
:1052000094F851506668012D08D0B6F5827F03D11D
:10521000A06808B9042D01D002274DE009B102B100
:105220000BB9012748E094F85100012802D105206C
:1052300084F85100002060652163A386E386A263A1
:10524000A387E387E06820B11F4820641F4860649B
:1052500003E01F4820641F486064A06AB0F5005F47
:1052600013D100BF206800684DF6FF7C00EA0C00F7
:10527000D4F800C0CCF800002068006840F400506A
:10528000D4F800C0CCF8000000BF2068406840F0AF
:10529000E000D4F800C0CCF804002068006800F0FA
:1052A0004000402807D02068006840F04000D4F853
:1052B00000C0CCF8000000BF00BF002084F8500000
:1052C00000BF384697E700008D5800086F59000866
:1052D000FD580008C759000830B50346002400BF38
:1052E00093F85000012801D1022030BD012083F83D
:1052F000500000BF01B10AB9012451E093F85100F8
:10530000012801D002244BE0032083F85100002043
:10531000586519639A86DA8698639887D8871864DF
:10532000D86810B12248586401E02248586498684F
:10533000B0F5004F05D11868006840F480401D6842
:105340002860986AB0F5005F0ED100BF1868006849
:105350004DF6FF7528401D6828601868006840F405
:1053600000501D68286000BF986830B91868406810
:1053700040F080001D68686005E01868406840F0F3
:10538000A0001D6868601868006800F040004028B0
:1053900005D01868006840F040001D68286000BF14
:1053A00000BF002083F8500000BF20469DE70000AA
:1053B0004F5D0008935D00087047704770B5044664
:1053C0000D4604222946206801F0CEF82068406C82
:1053D00040F40040216848642068006840F0010003
:1053E00021680860002070BD10B504460CB901208A
:1053F00010BD94F8390028B9002084F83800204600
:1054000000F00CF8022084F83900211D206801F01A
:105410002BF8012084F839000020E9E770470000EC
:1054200030B504460D4601222946206801F08EF869
:105430000C492068884203D00B492068884201D17A
:10544000012000E0002028B12068406C40F40040BA
:10545000216848642068006840F001002168086005
:10546000002030BD000001400004014070B504463A
:105470000D46164600BF94F83800012801D10220DD
:1054800070BD012084F8380000BF022084F8390084
:1054900036B1042E1BD0082E31D00C2E5ED145E043
:1054A0002946206801F06EF82068806940F0080005
:1054B000216888612068806920F004002168886183
:1054C00020688069296908432168886147E0294686
:1054D000206801F08FF82068806940F4006021683E
:1054E00088612068806920F4806021688861206874
:1054F0008069296940EA0120216888612FE02946F6
:10550000206801F0B3F82068C06940F00800216805
:10551000C8612068C06920F004002168C861206863
:10552000C069296908432168C86118E029462068D4
:1055300001F0D8F82068C06940F400602168C861B3
:105540002068C06920F480602168C8612068C06953
:10555000296940EA01202168C86100E000BF00BF5E
:10556000012084F8390000BF002084F8380000BF13
:1055700000BF85E710B504460CB9012010BD94F8B2
:10558000390028B9002084F83800204600F00CF8D3
:10559000022084F83900211D206800F065FF0120F9
:1055A00084F839000020E9E77047000030B5044670
:1055B0000D4601222946206800F0C8FF0C492068EA
:1055C000884203D00B492068884201D1012000E0C5
:1055D000002028B12068406C40F4004021684864F5
:1055E0002068006840F0010021680860002030BD9C
:1055F000000001400004014008B50168096801F09D
:10560000010119B10168496800911AE0016809684F
:10561000C1F3400119B101684968009111E00168C6
:105620000968C1F3800119B101684968009108E077
:1056300001680968C1F3C00119B1016849680091A6
:1056400000BF08BD2DE9F0470446206805682068C2
:10565000C668206847694FF00008C14605F00F088A
:10566000B8F1000F0AD105F0200038B106F0200093
:1056700020B1204601F090F8BDE8F087B8F1000FA6
:105680006DD007F0010018B906F49070002866D0BC
:1056900005F0010030B106F4807018B1E06B40F005
:1056A0000100E06305F0040030B107F0010018B11B
:1056B000E06B40F00200E06305F0020030B107F05B
:1056C000010018B1E06B40F00400E06305F0080051
:1056D00030B107F0010018B1E06B40F00800E06362
:1056E000E06B68B305F0200028B106F0200010B18F
:1056F000204601F051F820684069C0F38019E06B42
:1057000000F0080010B9B9F1000F22D0204601F0D6
:1057100023F82068406900F04000B0B1206840697B
:1057200020F0400021684861606B50B11748616B00
:105730000865606BFEF74BFA10B1606B016D88472E
:105740000CE02046FFF758FF08E02046FFF754FF23
:1057500004E02046FFF750FF0020E0638CE705F0EF
:10576000800030B106F0800018B1204601F016FA32
:1057700082E705F0400030B106F0400018B1204645
:1057800000F0FAFF78E700BF76E700004567000801
:1057900010B504460CB9012010BDA06900B100E0AD
:1057A00000BF94F8390028B9002084F8380020465A
:1057B00000F027F8242084F839002068C06820F41D
:1057C00000502168C860204601F034F82068006964
:1057D00020F49040216808612068406920F02A0088
:1057E000216848612068C06840F400502168C860A2
:1057F0000020E063202084F8390084F83A0000207B
:10580000CAE77047704701680968C1F3801119B190
:105810006FF0400102681160704730B5036891FA7B
:10582000A1F4B4FA84F465000324AC40A34391FAD4
:10583000A1F4B4FA84F4640002FA04F4234303608C
:1058400030BD10B543688B4301FB02F42343436032
:1058500010BD30B5C36891FAA1F4B4FA84F46500C0
:105860000324AC40A34391FAA1F4B4FA84F4640095
:1058700002FA04F42343C36030BD0146C86880B215
:1058800070470146C868C0B27047000010B50446B2
:105890002068C068A16B0880A06B801CA063E08FAB
:1058A000401EE087E08F88B9A06AB0F5005F02D1A2
:1058B0000748206410BD2068406820F0400021683F
:1058C0004860E08E10B9204600F0BCF800BFF1E758
:1058D000D558000838B50446002000902068C068FC
:1058E00080B20090BDF800002068406820F04000C1
:1058F00021684860204600F0A5F838BD10B5044680
:105900002068017BA26B501CA0631170E08F401EC9
:10591000E087E08F88B9A06AB0F5005F02D108483F
:10592000206410BD2068406820F060002168486055
:10593000E08E10B9204600F085F800BFF1E70000C6
:105940004559000838B50446002000902068007BC7
:1059500000909DF800002068406820F060002168F9
:105960004860E08E10B9204600F06CF838BD10B5E4
:105970000446206B00882168C860206B801C20636F
:10598000E08E401EE086E08ED8B9A06AB0F5005FD8
:105990000CD12068006840F48050216808602068BD
:1059A000406820F080002168486010BD2068406891
:1059B00020F0800021684860E08F10B9204600F098
:1059C00041F800BFF1E710B50446216B481C206385
:1059D000087821680873E08E401EE086E08ED8B912
:1059E000A06AB0F5005F0CD12068006840F48050D8
:1059F000216808602068406820F0800021684860C5
:105A000010BD2068406820F0800021684860E08F69
:105A100010B9204600F016F800BFF1E7F8B50446CB
:105A20000D4616462B46002280212046009600F0A7
:105A3000D1F928B1606D40F0200060650320F8BD09
:105A40000020FCE77CB5044600BF364800681821FA
:105A5000B0FBF1F04FF47A71B0FBF1F064214843F0
:105A60000190FEF7C9F805462068406820F0200044
:105A70002168486000BF0198411E019120B9606D06
:105A800040F02000606505E02068806800F00200BA
:105A90000028F0D000BF2A4664212046FFF7BEFF51
:105AA00018B1606D40F020006065A06850B900BF7B
:105AB000002000902068C0680090206880680090F6
:105AC00000BF00BF20688068C0F3001070B10120E3
:105AD00084F85100606D40F0020060654FF6EF7091
